ID1032,20250910-06:54:55.523,20250910-06:54:55.523,MSFT,2,60,499.26,499.26,ID7
ID1032,20250910-06:54:55.523,20250910-06:54:55.523,MSFT,2,60,499.26,499.26,ID7
ID1032,20250910-06:57:13.374,20250910-06:57:13.374,MSFT,2,60,499.26,499.26,ID7
ID2865,20250910-08:00:03.988,20250910-08:00:03.988,MSFT,1,5,498.5,,
ID2865,20250910-08:00:04.164,20250910-08:00:04.164,MSFT,1,5,498.500000,0.000000,ID1516
ID21495,20250910-08:12:20.251,20250910-08:12:20.252,MSFT,1,1,497,,
ID21495,20250910-08:12:20.354,20250910-08:12:20.353,MSFT,1,1,497.000000,0.000000,ID1516
ID36301,20250910-08:26:08.420,20250910-08:26:08.420,MSFT,1,10,498.6,,
ID36301,20250910-08:26:08.522,20250910-08:26:08.521,MSFT,1,10,498.600000,0.000000,ID1516
ID36301,20250910-08:31:15.929,20250910-08:31:15.929,MSFT,1,10,498.600000,498.600000,ID1516
20250910-02:54:55.523351 : 8=FIX.4.2|9=334|35=8|34=3223|49=ID1|52=20250910-06:54:55.523|56=ID2|1=ID931|6=499.26|11=ID1032|14=3|17=ID1034|20=0|30=ID7|31=499.26|32=3|37=ID1033|38=60|39=1|40=2|44=499.26|54=2|55=MSFT|59=0|60=20250910-06:54:55.523|76=ID8|150=1|151=57|10=186|
20250910-02:54:55.523440 : 8=FIX.4.2|9=336|35=8|34=3224|49=ID1|52=20250910-06:54:55.523|56=ID2|1=ID931|6=499.26|11=ID1032|14=16|17=ID1035|20=0|30=ID7|31=499.26|32=13|37=ID1033|38=60|39=1|40=2|44=499.26|54=2|55=MSFT|59=0|60=20250910-06:54:55.523|76=ID8|150=1|151=44|10=032|
20250910-02:57:13.374741 : 8=FIX.4.2|9=335|35=8|34=3242|49=ID1|52=20250910-06:57:13.374|56=ID2|1=ID931|6=499.26|11=ID1032|14=60|17=ID1044|20=0|30=ID7|31=499.26|32=44|37=ID1033|38=60|39=2|40=2|44=499.26|54=2|55=MSFT|59=0|60=20250910-06:57:13.374|76=ID8|150=2|151=0|10=232|
20250910-04:00:04.164196 : 8=FIX.4.2|9=270|35=D|34=377|49=ID1509|52=20250910-08:00:03.988|56=ID1510|1=ID1523|11=ID2865|38=5|40=2|44=498.5|54=1|55=MSFT|59=5|60=20250910-08:00:03.988|10=146|
20250910-04:00:04.164798 : 8=FIX.4.2|9=339|35=8|34=443|49=ID1510|52=20250910-08:00:04.164|56=ID1509|1=ID2880|6=0.000000|11=ID2865|14=0|17=ID2879|20=0|30=ID1516|31=0|32=0|37=ID2878|38=5|39=0|40=2|44=498.500000|54=1|55=MSFT|59=5|60=20250910-08:00:04.164|76=ID1516|150=0|151=5|10=018|
20250910-04:12:20.353384 : 8=FIX.4.2|9=279|35=D|34=4851|49=ID1509|52=20250910-08:12:20.252|56=ID1510|1=ID1518|11=ID21495|38=1|40=2|44=497|54=1|55=MSFT|59=5|60=20250910-08:12:20.251|10=071|
20250910-04:12:20.353920 : 8=FIX.4.2|9=360|35=8|34=8788|49=ID1510|52=20250910-08:12:20.353|56=ID1509|1=ID21498|6=0.000000|11=ID21495|14=0|17=ID21497|20=0|30=ID1516|31=0|32=0|37=ID21496|38=1|39=0|40=2|44=497.000000|54=1|55=MSFT|59=5|60=20250910-08:12:20.354|76=ID1516|150=0|151=1|10=075|
20250910-04:26:08.521266 : 8=FIX.4.2|9=282|35=D|34=8672|49=ID1509|52=20250910-08:26:08.420|56=ID1510|1=ID1518|11=ID36301|38=10|40=2|44=498.6|54=1|55=MSFT|59=5|60=20250910-08:26:08.420|10=241|
20250910-04:26:08.521774 : 8=FIX.4.2|9=363|35=8|34=15503|49=ID1510|52=20250910-08:26:08.521|56=ID1509|1=ID4826|6=0.000000|11=ID36301|14=0|17=ID36303|20=0|30=ID1516|31=0|32=0|37=ID36302|38=10|39=0|40=2|44=498.600000|54=1|55=MSFT|59=5|60=20250910-08:26:08.522|76=ID1516|150=0|151=10|10=232|
20250910-04:31:15.929103 : 8=FIX.4.2|9=389|35=8|34=17470|49=ID1510|52=20250910-08:31:15.929|56=ID1509|1=ID4826|6=498.600000|11=ID36301|14=10|17=ID40528|20=0|30=ID1516|31=498.600000|32=10|37=ID36302|38=10|39=2|40=2|44=498.600000|54=1|55=MSFT|58=CODA: Fill|59=5|60=20250910-08:31:15.929|76=ID1516|150=2|151=0|10=037|
